S0100000526F626F707566662E73726563D1
S11300000C947B010C9498010C9498010C94980125
S11300100C9498010C9498010C9498010C949801F8
S11300200C9498010C9498010C942F080C946D086E
S11300300C9498010C9498010C9498010C949801D8
S11300400C9498010C9498010C9498010C949801C8
S11300500C9498010C9498010C9498010C949801B8
S11300600C9498010C9498010C9498010C949801A8
S11300700C9498010C9498010C9498010C94980198
S11300800C94C50E0C9498010C9498010C9498014E
S11300900C9498010C9498010C9498010C94980178
S11300A00C9498010C9498010C949801084AD73B3D
S11300B03BCE016E84BCBFFDC12F3D6C74319ABD33
S11300C056833DDA3D00C77F11BED9E4BB4C3E9157
S11300D06BAAAABE000000803F05A84CCDB2D44E46
S11300E0B93836A9020C50B9918688083CA6AAAA48
S11300F02ABE000000803F00000100008F011200B2
S11301000200004C014300030000480104010309FC
S113011004340112020309042C0106030309042216
S113012001080803340031003000000006034D00CC
S11301303200000012034A002E002000460069002D
S113014065006E0065000000040309040902430011
S1130150020100C03209040000010202010005246A
S113016000100105240101010424020605240600EF
S1130170010705820310004009040100020A00007F
S11301800007050302400000070584024000001236
S113019001000202000010C0167A040001010203EB
S11301A0010001C11201803601813609313030204D
S11301B07820522054683A200009313030207820C9
S11301C05220793A20000A313030207820522078A9
S11301D03A20000A726F626F207920000A726F62FF
S11301E06F207820000A726F626F20746820000A02
S11301F0696E7620000A482073207220000A636F1B
S11302007320746820000A73696E20746820000AE1
S11302107920000A7820000A5468657461207820E7
S11302203130303A20000A766563746F7220000A18
S11302306F666673657420000A6F726967696E2061
S1130240000A736F75746820000A436F756C646EDE
S113025027742066696E6420696E746572736563C1
S113026074696F6E20000A696E74657273656374D5
S113027020000A66696E64206D617820000A666950
S11302806E64206D696E20000A64697374616E6324
S1130290655F6D617472697820000A49676E6F72D8
S11302A0696E672062656361757365207468657241
S11302B065206172652062616420737461727320C9
S11302C00029002C0029092050333A2028002C0052
S11302D029092050323A2028002C002909205031C5
S11302E03A2028002C000950303A2028000A536193
S11302F06D706C65200011241FBECFEFDAE0DEBF05
S1130300CDBF11E0A0E0B1E0ECE2FFE202C0059055
S11303100D92A231B107D9F721E0A2E1B1E001C009
S11303201D92A238B207E1F70E949E120C94941712
S11303300C9400002F923F924F925F926F927F92A3
S11303408F929F92AF92BF92CF92DF92EF92FF92E1
S11303500F931F93CF93DF93CDB7DEB72E970FB6CE
S1130360F894DEBF0FBECDBF7C017E876D878C0104
S1130370085F1F4FB8010E94220D2B013C01170199
S113038080E1280E311CB101C7010E94220D4B01EE
S11303905C01F7017896FA83E983BF01C7010E94E3
S11303A0220D6B017C01B101C8010E94220D6D83F5
S11303B07E838F83988769817A81C8010E94220D88
S11303C069877A878B879C8769817A81C1010E94BA
S11303D0220D69837A838B839C8300E010E020ECF8
S11303E03FE740E050E060E070E08D859E850E942C
S11303F0D40400E010E020EC3FE741E050E061E08D
S113040070E08D859E850E94D40400E010E020EC0D
S11304103FE742E050E062E070E08D859E850E94F7
S1130420D40400E010E020EC3FE743E050E063E058
S113043070E08D859E850E94D4049301820141E081
S113044050E060E070E08D859E850E94D4049301A5
S1130450820140E050E061E070E08D859E850E945D
S1130460D4049501840142E050E060E070E08D85A1
S11304709E850E94D4049501840140E050E062E02E
S113048070E08D859E850E94D4049701860143E027
S113049050E060E070E08D859E850E94D404970151
S11304A0860140E050E063E070E08D859E850E9407
S11304B0D4040D811E812F81388542E050E061E033
S11304C070E08D859E850E94D4040D811E812F814C
S11304D0388541E050E062E070E08D859E850E94A1
S11304E0D40409851A852B853C8543E050E061E0FE
S11304F070E08D859E850E94D40409851A852B851C
S11305003C8541E050E063E070E08D859E850E946B
S1130510D40409811A812B813C8143E050E062E0DC
S113052070E08D859E850E94D40409811A812B81F7
S11305303C8142E050E063E070E08D859E850E943E
S1130540D4042E960FB6F894DEBF0FBECDBFDF9154
S1130550CF911F910F91FF90EF90DF90CF90BF90BC
S1130560AF909F908F907F906F905F904F903F904F
S11305702F900895CF93DF93EC010E94650D20E046
S113058030EC4FE754E40E947413811110C0CE0183
S11305900E946B0DD1E0C0E020E030EC4FE754E462
S11305A00E9474138111D0E08D2F9C2F02C080E033
S11305B090E0DF91CF910895FC0120813181428147
S11305C05381FB01808191818217930799F06281A5
S11305D073816217730749F04817590741F04617AA
S11305E0570739F080E090E00895CB010895CA01DF
S11305F00895CA010895FB01208131812817390724
S113060011F422813381C9010895CF92DF92EF92D0
S1130610FF920F931F93CF93DF937C016B01869F0F
S11306208001879F100D969F100D112486E090E0A5
S11306300E940716EC01D982C882FB82EA82C801B3
S1130640880F991F880F991F0E9407169D838C831A
S1130650101611069CF440E050E020E030E0EC81FC
S1130660FD81E40FF51F10821182128213822F5F25
S11306703F4F4C5F5F4F2017310789F7CE01DF9161
S1130680CF911F910F91FF90EF90DF90CF9008953D
S1130690DC012D913C911197629FF001639FF00D55
S11306A0729FF00D11244E0F5F1F440F551F440F0E
S11306B0551F1496ED91FC911597E40FF51F608179
S11306C071818281938108952F923F924F925F921C
S11306D06F927F928F929F92AF92BF92CF92DF924E
S11306E0EF92FF920F931F93CF93DF93CDB7DEB7B3
S11306F02E970FB6F894DEBF0FBECDBF9C878B87B5
S11307008B0141E050E060E070E0C8010E944803C2
S1130710962E872E782E692EF8010480F581E02D1F
S1130720FE83ED83F8010280F381E02DF887EF83E7
S1130730F801A080B1802F813885121613060CF0C1
S113074056C0C501880F991F880F991F9A878987FA
S11307501A8219821B821C82212C312C3CC0F80184
S1130760C190D190E190F1908F01A7019601C7014A
S1130770B6010E94DD15811114C0292D382D472D95
S1130780562DC701B6010E947413882354F49C2C7F
S11307908D2C7E2C6F2CFD85FB832E852C83242CA5
S11307A0352C8D859E8501969E878D878A159B05A0
S11307B0B1F6ED81FE8129853A85E20FF31FFE83B0
S11307C0ED8389819A8101969A838983EF81F885E3
S11307D08E179F0781F01A141B049CF70D811E814C
S11307E0E12CF12C49805A80FE86ED86B8CF1B821D
S11307F01C82212C312CEB85FC85208231822B81BB
S113080022833C8133832E960FB6F894DEBF0FBE4D
S1130810CDBFDF91CF911F910F91FF90EF90DF90AB
S1130820CF90BF90AF909F908F907F906F905F908C
S11308304F903F902F9008952F923F924F925F9246
S11308406F927F928F929F92AF92BF92CF92DF92DC
S1130850EF92FF920F931F93CF93DF93CDB7DEB741
S11308602E970FB6F894DEBF0FBECDBF9C878B8743
S11308708B0141E050E060E070E0C8010E94480351
S1130880962E872E782E692EF8010480F581E02DAE
S1130890FE83ED83F8010280F381E02DF887EF8376
S11308A0F801A080B1802F813885121613060CF050
S11308B056C0C501880F991F880F991F9A87898789
S11308C01A8219821B821C82212C312C3CC0F80113
S11308D0C190D190E190F1908F01A7019601C701D9
S11308E0B6010E94DD15811114C0292D382D472D24
S11308F0562DC701B6010E942415181654F49C2CD9
S11309008D2C7E2C6F2CFD85FB832E852C83242C33
S1130910352C8D859E8501969E878D878A159B052E
S1130920B1F6ED81FE8129853A85E20FF31FFE833E
S1130930ED8389819A8101969A838983EF81F88571
S11309408E179F0781F01A141B049CF70D811E81DA
S1130950E12CF12C49805A80FE86ED86B8CF1B82AB
S11309601C82212C312CEB85FC85208231822B8149
S113097022833C8133832E960FB6F894DEBF0FBEDC
S1130980CDBFDF91CF911F910F91FF90EF90DF903A
S1130990CF90BF90AF909F908F907F906F905F901B
S11309A04F903F902F9008950F931F93FC01A081C7
S11309B0B1816A9FF0016B9FF00D7A9FF00D1124B5
S11309C04E0F5F1F440F551F440F551FDC01149633
S11309D0ED91FC911597E40FF51F00831183228399
S11309E033831F910F9108952F923F924F925F92FC
S11309F06F927F928F929F92AF92BF92CF92DF922B
S1130A00EF92FF920F931F93CF93DF93CDB7DEB78F
S1130A10A0970FB6F894DEBF0FBECDBF1C018B01AB
S1130A2040E050E060E070E00E9448036B017C010C
S1130A3041E050E061E070E0C1010E9448039B0185
S1130A40AC01C701B6010E942F154B015C0142E0C5
S1130A5050E062E070E0C1010E9448036B017C0138
S1130A609B01AC01C501B4010E942F154B015C012F
S1130A7041E050E060E070E0C1010E9448032B01B6
S1130A803C0140E050E061E070E0C1010E94480395
S1130A909B01AC01C301B2010E942F159B01AC0163
S1130AA0C701B6010E942F159B01AC01C501B40119
S1130AB00E94AD126B017C01D1011496AD90BC90E3
S1130AC01597D5014D915D916D917C911397498353
S1130AD05A836B837C8314964D915D916D917C91C7
S1130AE017974D835E836F83788718964D915D9138
S1130AF06D917C911B9749875A876B877C87F1019D
S1130B0020813181C901880F991F880F991FA80F6F
S1130B10B91F4D915D916D917C9113974D875E87BF
S1130B206F87788B14964D915D916D917C91179799
S1130B30498B5A8B6B8B7C8B18964D915D916D9183
S1130B407C911B974D8B5E8B6F8B788F220F331F9D
S1130B50220F331F220F331FA80FB91F6D917D91F0
S1130B608D919C91698F7A8F8B8F9C8F2A0D3B1D61
S1130B70D90114968D919D910D90BC91A02D8D8FCE
S1130B809E8FAF8FB8A3F90180849184A284B3842B
S1130B90D80114962D903C901597A501940169896C
S1130BA07A898B899C890E942F152B013C012D8DFC
S1130BB03E8D4F8D58A16D897E898F89988D0E94B5
S1130BC02F159B01AC01C301B2010E94AD12A70114
S1130BD096010E947B13F101608371838283938366
S1130BE0D80114962D903C9015972D8D3E8D4F8DE8
S1130BF058A169857A858B859C850E942F152B01C8
S1130C003C01A50194016D817E818F8198850E94AC
S1130C102F159B01AC01C301B2010E94AD12A701C3
S1130C2096010E947B13F101648375838683978305
S1130C30D80114962D903C9015972D893E894F89A3
S1130C40588D6D817E818F8198850E942F152B018F
S1130C503C0129893A894B895C8969857A858B8528
S1130C609C850E942F159B01AC01C301B2010E9417
S1130C70AD12A70196010E947B13F1016087718771
S1130C8082879387D8018D919C9111979C01220FA3
S1130C90331F220F331F14968D919C9115971901C0
S1130CA0280E391E298D3A8D4B8D5C8D6D897E8978
S1130CB08F89988D0E942F152B013C01A501940169
S1130CC06D857E858F8598890E942F159B01AC01C7
S1130CD0C301B2010E94AD12A70196010E947B13C9
S1130CE0F1016083718382839383D8018D919C91F8
S1130CF011979C01220F331F220F331F14968D91DD
S1130D009C9115973901680E791EA501940169819A
S1130D107A818B819C810E942F154B015C01298D66
S1130D203A8D4B8D5C8D69857A858B859C850E9477
S1130D302F159B01AC01C501B4010E94AD12A7019E
S1130D4096010E947B13F3016483758386839783E2
S1130D50D8018D919C9111979C01220F331F220F72
S1130D60331F14968D919C9115973901680E791E45
S1130D702D853E854F85588969857A858B859C8527
S1130D800E942F154B015C012D893E894F89588D96
S1130D9069817A818B819C810E942F159B01AC0112
S1130DA0C501B4010E94AD12A70196010E947B13F4
S1130DB0F3016087718782879387D8018D919C9115
S1130DC011979C01220F331F220F331F220F331F51
S1130DD014968D919C9115973901680E791E2D8D6D
S1130DE03E8D4F8D58A16D857E858F8598890E9493
S1130DF02F154B015C01298D3A8D4B8D5C8D6989D2
S1130E007A898B899C890E942F159B01AC01C501AD
S1130E10B4010E94AD12A70196010E947B13F30155
S1130E206083718382839383D8018D919C91119700
S1130E309C01220F331F220F331F220F331F1496DE
S1130E408D919C9115973901680E791E298D3A8DE3
S1130E504B8D5C8D6D817E818F8198850E942F15CD
S1130E604B015C012D8D3E8D4F8D58A169817A8196
S1130E708B819C810E942F159B01AC01C501B4019B
S1130E800E94AD12A70196010E947B13F3016483B3
S1130E90758386839783D8018D919C9111979C01CA
S1130EA0220F331F220F331F220F331F14968D91ED
S1130EB09C9115978901080F191F29893A894B8933
S1130EC05C8969817A818B819C810E942F154B01F9
S1130ED05C012D853E854F8558896D817E818F818A
S1130EE098850E942F159B01AC01C501B4010E9495
S1130EF0AD12A70196010E947B13F80160877187E8
S1130F0082879387A0960FB6F894DEBF0FBECDBF3D
S1130F10DF91CF911F910F91FF90EF90DF90CF90D1
S1130F20BF90AF909F908F907F906F905F904F9005
S1130F303F902F900895589A599A5A9A8CE080932A
S1130F40B800E9E6F0E080818062808380818F7E52
S1130F508083EA9A7894089581E08093D70080EAA8
S1130F608093D80082E189BD09B400FEFDCF80E9F9
S1130F708093D8001092E000109215011092120193
S1130F808CE08093E200789408959FB7F894809160
S1130F901501882331F083E08093E9008091F20009
S1130FA001C080E09FBF0895CF93DF939091150116
S1130FB0992309F44CC09FB7F89424E02093E900E6
S1130FC020911301222349F02091E80025FD03C05C
S1130FD09FBF8FEF41C0109213013091E400375E40
S1130FE02091E80025FD24C09FBF9091E400931751
S1130FF081F090911501992361F1A9EEB0E044E0EC
S1131000E8EEF0E0C4EED0E00DC09FBF98819313EA
S113101005C081E0809313018FEF1EC090911501EC
S11310209923C9F09FB7F8944C93208125FFEDCF05
S11310308093F1008091E80085FD03C08AE38093EA
S1131040E80085E0809314019FBF80E005C08FEF26
S113105003C08FEF01C08FEFDF91CF9108951F92EE
S11310600F920FB60F9211248F939F93EF93FF93D8
S1131070E1EEF0E08081108283FF11C01092E9005C
S113108091E09093EB001092EC0092E19093ED00CC
S113109098E09093F000109215011092120182FFD3
S11310A013C080911501882379F08091140188235D
S11310B059F0815080931401811106C084E080931B
S11310C0E9008AE38093E800FF91EF919F918F916B
S11310D00F900FBE0F901F9018951F920F920FB68E
S11310E00F9211240F931F932F933F934F935F936A
S11310F06F937F938F939F93AF93BF93CF93DF931C
S1131100EF93FF931092E9008091E80083FF4EC1B2
S1131110E1EFF0E0C08140812081808130E0382B14
S11311208081508190E0BC01752BB081A08182EF59
S11311308093E800463009F058C004C081E28093EF
S1131140EB003BC1C6E088EF90E0FC01459154916F
S11311502417350711F0079623C0FC0132964591F8
S113116054916417750711F007961AC0FC01349660
S113117025913491FC01369654918B2F90E09A2B53
S11311808F3F910519F010F08FEF90E0851708F468
S1131190582FA8EEB0E070E16EEFC1EFD0E003C0CD
S11311A0C15099F6CBCF8C91982F9570E1F382FDC5
S11311B004C1452F513108F0472F442309F4FAC0E4
S11311C0F901842F94919883815031968111FACF3B
S11311D08FEF840F90E00196280F391F541B6C93F6
S11311E05111E1CF4031F9F2E8C0453061F48EEF9E
S11311F08093E800E8EEF0E0808180FFFDCF206876
S11312002093E300DAC0493009F036C0C1115FC051
S11312102093150110921201109214018EEF809305
S1131220E80011E081EA91E0C9EED0E0ABEEB0E075
S11312306CEE70E04DEE50E018839C012F5F3F4F41
S1131240FC0104910C93002361F0F9012491FB014A
S113125020839C012D5F3F4FFC0132968491FA015B
S113126080831F5F153011F0C901E6CFEAEEF0E08C
S11312708EE180831082A1C0483081F4C03809F027
S113128042C0E8EEF0E0808180FFFDCF809115013F
S11312908093F1008EEF8093E8008FC04132B9F45F
S11312A0C13A09F040C0E8EEF0E0808180FFFDCF54
S11312B0E6E0F1E08DE091E0A1EFB0E021912C9324
S11312C0E817F907D9F78EEF8093E80076C040322B
S11312D0D1F4C13209F043C0E8EEF0E0808182FF2E
S11312E0FDCFE6E0F1E08DE091E0A1EFB0E02C91DC
S11312F02193E817F907D9F7E8EEF0E08BEF808344
S11313008EEF80835AC0423271F4C13209F04EC06C
S113131020931201E8EEF0E0808180FFFDCF8EEF94
S11313208093E8004AC041111AC0E8EEF0E08081E1
S113133080FFFDCFC23851F4E9EEF0E06083809184
S1131340EB0085FB882780F9108201C080E0E1EF83
S1131350F0E0808310828EEF8093E8002EC0842F0B
S11313608D7F813019F5C23009F5232BF9F46F779D
S11313708FEF860F8430D0F48EEF8093E800609373
S1131380E900433021F481E28093EB0016C089E147
S11313908093EB0081E090E002C0880F991F6A956A
S11313A0E2F7EAEEF0E08083108207C081E28093E6
S11313B0EB0003C06C935111F6CEFF91EF91DF91D6
S11313C0CF91BF91AF919F918F917F916F915F91D9
S11313D04F913F912F911F910F910F900FBE0F903E
S11313E01F9018951F93CF93DF93EC012196FC0176
S11313F01491112369F01A3019F48DE00E94D40776
S1131400812F0E94D407FE01149121961111F3CF6C
S1131410DF91CF911F910895EF92FF920F931F9345
S1131420CF93DF93CDB7DEB727970FB6F894DEBF1F
S11314300FBECDBF8E010F5F1F4F27E0F801119241
S11314402A95E9F74AE0B8010E942E177E01F8E0D8
S1131450EF0EF11CF80181918F0181110E94D407D4
S11314600E151F05B9F727960FB6F894DEBF0FBE09
S1131470CDBFDF91CF911F910F91FF90EF90089511
S1131480EF92FF920F931F93CF93DF93CDB7DEB705
S11314902B970FB6F894DEBF0FBECDBF8E010F5F42
S11314A01F4F2BE0F80111922A95E9F72AE0A801D1
S11314B00E9439177E01FCE0EF0EF11CF8018191C6
S11314C08F0181110E94D4070E151F05B9F72B96C1
S11314D00FB6F894DEBF0FBECDBFDF91CF911F9141
S11314E00F91FF90EF90089520E030E0ECEBF0E0F6
S11314F08081882334F02F5F3F4F293E83E03807F3
S1131500B9F781E0283E334009F480E008958093E0
S1131510BB0084E88093BC000E94740A882319F0FD
S11315208091B900887F0895CF93C82F94EA90934F
S1131530BC000E94740A882361F08C2F880F0E94DB
S1131540870A803229F484E98093BC0080E001C0DA
S113155081E0CF9108950E949B0788E50E94940A38
S1131560882309F4CDC080E30E94870A882309F404
S1131570C9C081E00E94870A882309F4C5C084E9B0
S11315808093BC0083EC99E00197F1F700C0000060
S113159088E50E94940A882309F4B8C080E00E9478
S11315A0870A882309F4B4C080E00E94870A88234C
S11315B009F4B0C080E00E94870A882309F4ACC013
S11315C080E00E94870A882309F4A8C080E00E9472
S11315D0870A882309F4A4C080E00E94870A88232C
S11315E009F4A0C080E00E94870A882309F49CC003
S11315F080E90E94870A882309F498C084E98093CB
S1131600BC0083EC99E00197F1F700C0000088E585
S11316100E94940A882309F48BC087E00E94870AF9
S1131620882309F487C080E00E94870A882309F48C
S113163083C081E40E94870A882309F47FC084E977
S11316408093BC0083EC99E00197F1F700C000009F
S113165088E50E94940A882309F472C08AE10E94F2
S1131660870A882309F46EC080E40E94870A8823CD
S113167009F46AC080E00E94870A882309F466C0DE
S113168084E98093BC0083EC99E00197F1F700C0F2
S1131690000088E50E94940A882309F459C083E372
S11316A00E94870A882309F455C083E00E94870AB0
S11316B0882309F451C084E98093BC0083EC99E049
S11316C00197F1F700C0000088E50E94940A88237E
S11316D009F444C080E30E94870A882309F440C0C7
S11316E088E00E94870A8823E9F184E98093BC009A
S11316F083EC99E00197F1F700C0000081E00895C0
S113170080E0089580E0089580E0089580E00895E1
S113171080E0089580E0089580E0089580E00895D1
S113172080E0089580E0089580E0089580E00895C1
S113173080E0089580E0089580E0089580E00895B1
S113174080E0089580E0089580E0089580E00895A1
S113175080E0089580E0089580E0089580E0089591
S113176080E0089580E00895CF93C82F94EA909381
S1131770BC000E94740A882369F08C2F880F8F5F45
S11317800E94870A883429F484E98093BC0080E0AD
S113179001C081E0CF910895EF92FF920F931F93C0
S11317A0CF93DF93CDB7DEB760970FB6F894DEBF63
S11317B00FBECDBF082F192FFE01319680E1DF0146
S11317C01D928A95E9F788E50E94940A882309F412
S11317D06EC086E30E94870A882309F46AC084E9FC
S11317E08093BC00B8E0BA95F1F7000088E50E9448
S11317F0B40B882309F45FC0BE016F5F7F4F9E0165
S1131800205F3F4FECEBF0E094EC4BEB50E0908327
S113181080818823ECF7DA018C91DB018D93BD0183
S1131820A217B307A1F784E88093BC00ECEBF0E0C7
S113183080818823ECF78091BB00888B84E98093B6
S1131840BC00FE013496E02EF12E8081982F907317
S1131850AF0142505109DA014C9150E0B0E19B9F35
S1131860400D511D1124D7014D935C93482F407CAA
S113187050E0440F551F440F551FBF0161507109BB
S1131880DB019C91490F511DD70113965C934E9334
S113189012978F7090E015969C938E9314973396BD
S11318A0B6E0EB0EF11C2E173F0779F606C080E078
S11318B005C080E003C080E001C081E060960FB6FF
S11318C0F894DEBF0FBECDBFDF91CF911F910F9172
S11318D0FF90EF9008958F929F92AF92BF92CF9214
S11318E0DF92EF92FF924B015C0169017A0188E07B
S11318F090E00E940716FC0180829182A282B3824A
S1131900C482D582E682F782FF90EF90DF90CF9079
S1131910BF90AF909F908F900895CF92DF92EF92F7
S1131920FF920F931F93CF93DF93EC018B01FB0185
S113193024813581468157816C817D818E819F818F
S11319400E94AE126B017C01F80120813181428139
S11319505381688179818A819B810E94AE12A7019B
S113196096010E946B0CDF91CF911F910F91FF9014
S1131970EF90DF90CF900895CF92DF92EF92FF9295
S11319800F931F93CF93DF93EC018B01FB01248111
S11319903581468157816C817D818E819F810E9432
S11319A0AD126B017C01F8012081318142815381A8
S11319B0688179818A819B810E94AD12A701960179
S11319C00E946B0CDF91CF911F910F91FF90EF90CC
S11319D0DF90CF9008958F929F92AF92BF92CF9253
S11319E0DF92EF92FF92CF93DF93EC016A017B01C8
S11319F02C813D814E815F81C701B6010E942F1564
S1131A004B015C01288139814A815B81C701B601A0
S1131A100E942F15A50194010E946B0CDF91CF91B8
S1131A20FF90EF90DF90CF90BF90AF909F908F90FA
S1131A3008950E948D0C40E050E060E07FE30E9436
S1131A40EB0C08958F929F92AF92BF92CF92DF9248
S1131A50EF92FF92CF93DF93EC015B01FB012081B6
S1131A60318142815381688179818A819B810E947D
S1131A70AD126B017C01F5012481358146815781CA
S1131A806C817D818E819F810E94AD129B01AC018E
S1131A900E942F154B015C01A7019601C701B601F5
S1131AA00E942F159B01AC01C501B4010E94AE1226
S1131AB00E949C15DF91CF91FF90EF90DF90CF9023
S1131AC0BF90AF909F908F900895FC0160817181C9
S1131AD0828193810895FC01648175818681978157
S1131AE00895FC0140835183628373830895FC014C
S1131AF0448355836683778308958034910539F14F
S1131B0034F48130910559F00897A9F008958115AE
S1131B1021E0920741F18115944089F10895E1E9AA
S1131B20F0E080818B7F808380818D7F80838081C2
S1131B30816080830895E1E9F0E080818B7F808378
S1131B4080818260808380818E7F80830895E1E933
S1131B50F0E080818B7F80838081826080838081BC
S1131B60816080830895E1E9F0E08081846080836E
S1131B7080818D7F808380818E7F80830895E1E9D9
S1131B80F0E080818460808380818D7F8083808188
S1131B9081608083089520E030E040E053E40E94B7
S1131BA02F159B01AC0160E074E284E79BE40E9482
S1131BB07B130E94E313CB0101970895CF93DF9326
S1131BC0E1E9F0E080818F7E80838081886080837A
S1131BD0C0E9D0E088818D7F888388818E7F888367
S1131BE080E490E00E947D0D3E9A88818F778883FF
S1131BF0888180648883E1E7F0E08081826080836B
S1131C0060910D0170910E0180910F01909110016E
S1131C100E94CB0D9093990080939800DF91CF910F
S1131C20089520E030E040EC53E460E070E080E0B0
S1131C3094E40E946B0C90936D0180936C0120E0FE
S1131C4030E0A901CA01B9010E946B0C90937D0197
S1131C5080937C0120E030E0A901CA01B9010E940F
S1131C606B0C909371018093700120E030E0A90126
S1131C70CA01B9010E946B0C9093730180937201A5
S1131C8020E030E0A901CA01B9010E946B0C9093D5
S1131C9079018093780120E030E0A901CA01B901FB
S1131CA00E946B0C90936B0180936A0120E030E0FA
S1131CB0A901CA01B9010E946B0C90936F01809332
S1131CC06E0120E030E0A901CA01B9010E946B0C49
S1131CD0909377018093760163E070E083E090E075
S1131CE00E940503909375018093740163E070E092
S1131CF083E090E00E94050390937B0180937A0136
S1131D0063E070E083E090E00E9405039093490152
S1131D1080934801E0917C01F0917D0188E0AAE480
S1131D20B1E001900D928A95E1F7E0917001F09194
S1131D30710188E0A2E5B1E001900D928A95E1F786
S1131D40E0917201F091730188E0AAE5B1E001909D
S1131D500D928A95E1F7E0917801F091790188E09C
S1131D60A2E6B1E001900D928A95E1F7E1E6F0E098
S1131D7080E8808310820E94AB0A0E94AC070E9414
S1131D809B070E94DE0D789408951F920F920FB660
S1131D900F9211248F939F9381E090E09093170109
S1131DA0809316019F918F910F900FBE0F901F90FB
S1131DB0189580E391E00E94CC0B60913001709102
S1131DC0310180E090E00E941414AB01BC018091C9
S1131DD07C0190917D010E94710D6091320170919E
S1131DE0330180E090E00E941414AB01BC018091A7
S1131DF07C0190917D010E94770D60913601709174
S1131E00370180E090E00E941414AB01BC01809182
S1131E107001909171010E94710D6091380170916F
S1131E20390180E090E00E941414AB01BC01809160
S1131E307001909171010E94770D60913C01709145
S1131E403D0180E090E00E941414AB01BC0180913C
S1131E507201909173010E94710D60913E01709125
S1131E603F0180E090E00E941414AB01BC0180911A
S1131E707201909173010E94770D609142017091FB
S1131E80430180E090E00E941414AB01BC018091F6
S1131E907801909179010E94710D609144017091D3
S1131EA0450180E090E00E941414AB01BC018091D4
S1131EB07801909179010E94770D08952F923F92B5
S1131EC04F925F926F927F928F929F92AF92BF9246
S1131ED0CF92DF92EF92FF920F931F93CF93DF93F2
S1131EE0CDB7DEB72C970FB6F894DEBF0FBECDBFCB
S1131EF00E94D90E0E94C507882309F480C08DEE84
S1131F0092E00E94F20986EE92E00E94F20980912A
S1131F107C0190917D010E94650D0E94E313CB0129
S1131F200E940C0A84EE92E00E94F20980917C01E6
S1131F3090917D010E946B0D0E94E313CB010E94DE
S1131F400C0A8BED92E00E94F2098091700190914D
S1131F5071010E94650D0E94E313CB010E940C0ADB
S1131F6089ED92E00E94F2098091700190917101D3
S1131F700E946B0D0E94E313CB010E940C0A80EDBA
S1131F8092E00E94F20980917201909173010E9483
S1131F90650D0E94E313CB010E940C0A8EEC92E0C3
S1131FA00E94F20980917201909173010E946B0D5D
S1131FB00E94E313CB010E940C0A85EC92E00E947C
S1131FC0F20980917801909179010E94650D0E9437
S1131FD0E313CB010E940C0A83EC92E00E94F20905
S1131FE080917801909179010E946B0D0E94E31316
S1131FF0CB010E940C0A81EC92E00E94F2096E9AD5
S11320009EB180E489278EB980917C0190917D01F5
S11320100E94BA02892BC9F48091700190917101D8
S11320200E94BA02892B89F4809172019091730104
S11320300E94BA02892B49F4809178019091790128
S11320400E94BA021C01009769F00E94C507882308
S113205009F457C28AE992E00E94F20922242A94E0
S1132060322C52C260917401709175018AE491E03E
S11320700E949A010E94C507882321F088E892E013
S11320800E94F2091E821D8218861F821A821982FA
S11320901C821B826091740170917501CE010596BA
S11320A00E9464030E94C507882321F08DE792E013
S11320B00E94F2096091740170917501CE0101963C
S11320C00E941C040E94C507882321F082E792E045
S11320D00E94F209BE016F5F7F4FCE0105960E94F8
S11320E0DC028C010E94C507882321F086E692E079
S11320F00E94F209B801882777FD8095982F0E94E5
S113210016149B01AC010E94DD15882361F00E9426
S1132110C507882321F089E492E00E94F209222471
S11321202A94322CF1C1BE016F5F7F4FC8010E9417
S1132130FB027C010E94C507882321F081E492E020
S11321400E94F209C701880F991F880F991F880FF1
S1132150991F9C01265B3E4F7901C801880F991F86
S1132160880F991F880F991FB901865B9E4F0E94A3
S1132170190D90936B0180936A010E94C50788230F
S113218021F088E392E00E94F20960916C01709161
S11321906D0180916A0190916B010E94BC0C909337
S11321A06F0180936E010E94C507882321F08FE29E
S11321B092E00E94F20960916A0170916B01C7017B
S11321C00E94BC0C90937701809376010E94C5070E
S11321D0882321F086E292E00E94F2098091760140
S11321E0909177010E946B0D6B017C0180917601C7
S11321F0909177010E94650D9058A70196010E9465
S113220021136B017C010E94C507882389F087E1B3
S113221092E00E94F20920E030E048EC52E4C70169
S1132220B6010E942F150E94E313CB010E940C0AF1
S113223080916E0190916F010E94650D2B013C010C
S11322400E94C507882321F083E192E00E94F209ED
S113225080916E0190916F010E946B0D69877A875E
S11322608B879C870E94C507882321F08FE092E02A
S11322700E94F209C701B6010E9492154B015C014C
S11322800E94C507882321F086E092E00E94F209AB
S1132290C701B6010E9478136B017C010E94C50737
S11322A0882321F08DEF91E00E94F20997018601C5
S11322B040E050E060E070E080917A0190917B0111
S11322C00E94D40495018401305841E050E060E05C
S11322D070E080917A0190917B010E94D404930173
S11322E0820142E050E060E070E080917A019091D8
S11322F07B010E94D4049501840140E050E061E038
S113230070E080917A0190917B010E94D40497013E
S1132310860141E050E061E070E080917A019091A3
S11323207B010E94D40409851A852B853C8542E0F3
S113233050E061E070E080917A0190917B010E940D
S1132340D40400E010E0980140E050E062E070E066
S113235080917A0190917B010E94D40400E010E006
S1132360980141E050E062E070E080917A01909140
S11323707B010E94D40400E010E020E83FE342E047
S113238050E062E070E080917A0190917B010E94BC
S1132390D4040E94C507882321F085EF91E00E94B0
S11323A0F209609148017091490180917A019091FC
S11323B07B010E94F4040E94C507882321F08FEE5C
S11323C091E00E94F20941E050E061E070E0809108
S11323D04801909149010E9448036B017C0141E04E
S11323E050E060E070E080914801909149010E94C2
S11323F04803A70196010E9421136B017C010E94EE
S1132400C507882321F085EE91E00E94F20942E09D
S113241050E060E070E080914801909149010E9491
S113242048032B013C010E94C507882321F08CED51
S113243091E00E94F20942E050E061E070E0809196
S11324404801909149010E9448034B015C010E949C
S1132450C507882321F083ED91E00E94F2094092A0
S113246020015092210160922201709223018092F6
S1132470240190922501A0922601B0922701C092D6
S11324801801D0921901E0921A01F0921B010E94E6
S1132490C507882381F186EC91E00E94F20920E0CF
S11324A030E048EC52E4C301B2010E942F150E94AF
S11324B0E3130E94400A89EB91E00E94F20920E0B4
S11324C030E048EC52E4C501B4010E942F150E948B
S11324D0E3130E94400A8BEA91E00E94F20920E093
S11324E030E048EC52E4C701B6010E942F150E9467
S11324F0E3130E94400A6A9A9EB184E089278EB948
S113250003C022242A94322CC1012C960FB6F894CD
S1132510DEBF0FBECDBFDF91CF911F910F91FF9012
S1132520EF90DF90CF90BF90AF909F908F907F906F
S11325306F905F904F903F902F9008950E94110EDE
S11325408091160190911701892BD1F30E945E0F9F
S11325501092170110921601F3CF5058BB27AA27E7
S11325600ED027C2F0D130F0F5D120F031F49F3FE6
S113257011F41EF4C0C10EF4E095E7FBB6C1E92FD7
S11325803AD280F3BA17620773078407950718F0E5
S113259071F49EF552C20EF4E0950B2EBA2FA02DC5
S11325A00B01B90190010C01CA01A0011124FF27FC
S11325B0591B99F0593F50F4503E68F11A16F040F7
S11325C0A22F232F342F4427585FF3CF46953795F6
S11325D02795A795F0405395C9F77EF41F16BA0BBB
S11325E0620B730B840BBAF09150A1F0FF0FBB1F69
S11325F0661F771F881FC2F70EC0BA0F621F731FB2
S1132600841F48F4879577956795B795F7959E3F0E
S113261008F0B3CF9395880F08F09927EE0F97959C
S11326208795089590D158F080E891E009F49EEFE1
S113263091D128F040E851E059F45EEF09C05BC144
S1132640FCC1E92FE078D7D168F3092E052AC1F33C
S1132650261737074807590738F00E2E07F8E025E4
S113266069F0E025E0640AC0EF6307F8009407FA14
S1132670DB01B9019D01DC01CA01AD01EF934AD030
S113268098D10AD05F91552331F02BED3FE049E416
S113269050FD49EC63CF0895DF93DD27B92FBF7751
S11326A040E85FE31616170648075B0710F4D92FB6
S11326B0CFD19F938F937F936F937CD2ECEAF0E01A
S11326C01DD177D12F913F914F915F91D4D1DD23CB
S11326D049F09058A2EA2AED3FE049EC5FE3D07854
S11326E05D274DDFDF9165C1DCD008F481E00895FA
S11326F039D1E3956FC10CD05CC12CD140F023D10A
S113270030F021F45F3F19F0F0C0511197C1F3C0CC
S113271072D198F39923C9F35523B1F3951B550B43
S1132720BB27AA2762177307840738F09F5F5F4FA0
S1132730220F331F441FAA1FA9F333D00E2E3AF0E1
S1132740E0E830D091505040E695001CCAF729D0FB
S1132750FE2F27D0660F771F881FBB1F261737074A
S11327604807AB07B0E809F0BB0B802DBF01FF277A
S113277093585F4F2AF09E3F510568F0B6C05EC182
S11327805F3FECF3983EDCF3869577956795B795B4
S1132790F7959F5FC9F7880F911D9695879597F9CF
S11327A00895E1E0660F771F881FBB1F6217730748
S11327B08407BA0720F0621B730B840BBA0BEE1F5D
S11327C088F7E095089504D06894B11137C108954D
S11327D01AD188F09F5790F0B92F9927B751A0F0DC
S11327E0D1F0660F771F881F991F1AF0BA95C9F7A1
S11327F012C0B13081F021D1B1E008951EC1672F1C
S1132800782F8827B85F39F0B93FCCF38695779550
S11328106795B395D9F73EF4909580957095619539
S11328207F4F8F4F9F4F0895E89409C097FB3EF464
S113283090958095709561957F4F8F4F9F4F992309
S1132840A9F0F92F96E9BB279395F6958795779587
S11328506795B795F111F8CFFAF4BB0F11F460FF47
S11328601BC06F5F7F4F8F4F9F4F16C0882311F09F
S113287096E911C0772321F09EE8872F762F05C0B3
S1132880662371F096E8862F70E060E02AF09A954E
S1132890660F771F881FDAF7880F9695879597F943
S11328A00895990F0008550FAA0BE0E8FEEF1616DD
S11328B01706E807F907C0F012161306E407F50730
S11328C098F0621B730B840B950B39F40A2661F0A4
S11328D0232B242B252B21F408950A2609F4A14047
S11328E0A6958FEF811D811D089597F99F6780E854
S11328F070E060E008959FEF80EC0895DF93CF933C
S11329001F930F93FF92EF92DF927B018C016894E7
S113291005C0DA2EEF01AFD0FE01E894A591259110
S1132920359145915591AEF3EF0129DEFE019701F2
S1132930A801DA9479F7DF90EF90FF900F911F913F
S1132940CF91DF91089500240A94161617061806ED
S11329500906089500240A9412161306140605069F
S11329600895C9CF50D0E8F3E894E0E0BB279F571F
S1132970F0F02AED3FE049EC06C0EE0FBB0F661FF6
S1132980771F881F28F0B23A62077307840728F07C
S1132990B25A620B730B840BE3959A9572F78038E5
S11329A030F49A95BB0F661F771F881FD2F79048A3
S11329B00AC1092E0394000C11F4882352F0BB0FB2
S11329C040F4BF2B11F460FF04C06F5F7F4F8F4F43
S11329D09F4F0895EF93E0FF06C0A2EA2AED3FE07F
S11329E049EC5FEBCCDDE5DF0F90039401FC9058DC
S11329F0E9EDF0E0FBC057FD9058440F551F59F026
S1132A005F3F71F04795880F97FB991F61F09F3FD7
S1132A1079F087950895121613061406551FF2CF00
S1132A204695F1DF08C0161617061806991FF1CF50
S1132A3086957105610508940895E894BB27662777
S1132A407727CB0197F908952CDF08F48FEF0895C9
S1132A509B01AC0160E070E080E89FE34CCE0BD0BA
S1132A60A8CF71DF28F076DF18F0952309F03DCF69
S1132A7042CF1124E3CFBFDFA0F3959FD1F3950F8D
S1132A8050E0551F629FF001729FBB27F00DB11DEE
S1132A90639FAA27F00DB11DAA1F649F6627B00D7E
S1132AA0A11D661F829F2227B00DA11D621F739F67
S1132AB0B00DA11D621F839FA00D611D221F749F75
S1132AC03327A00D611D231F849F600D211D822FBC
S1132AD0762F6A2F11249F5750408AF0E1F0882303
S1132AE04AF0EE0FFF1FBB1F661F771F881F915010
S1132AF05040A9F79E3F510570F0F7CE9FCF5F3F3E
S1132B00ECF3983EDCF3869577956795B795F79542
S1132B10E7959F5FC1F7FE2B880F911D96958795CA
S1132B2097F908959F931EDF0F9007FCEE5F52CF35
S1132B3011F40EF4E0CE45C066DFD0F39923D9F347
S1132B40CEF39F57550B87FF4AD00024A0E640EAF6
S1132B50900180585695979528F4805C660F771FEE
S1132B60881F20F026173707480730F4621B730BC1
S1132B70840B202931294A2BA695179407942025E4
S1132B8031254A2758F7660F771F881F20F026172C
S1132B903707480730F4620B730B840B200D311D8B
S1132BA0411DA09581F7B901842F9158880F9695FE
S1132BB0879508959B01AC0152CF73DE880B990B66
S1132BC008959F3F31F0915020F48795779567954C
S1132BD0B795880F911D9695879597F9089591500B
S1132BE05040660F771F881FD2F708959F938F93E5
S1132BF07F936F93FF93EF939B01AC0130DFEF91D1
S1132C00FF917CDE2F913F914F915F9128CFCF931D
S1132C10DF938230910510F482E090E0E09180012E
S1132C20F091810120E030E0A0E0B0E0309739F18C
S1132C304081518148175907B8F04817590771F472
S1132C4082819381109729F013969C938E93129707
S1132C502CC0909381018093800127C021153105F8
S1132C6031F04217530718F0A901DB0101C0EF014D
S1132C709A01BD01DF010280F381E02DD7CF211538
S1132C803105F9F0281B390B2430310580F48A8191
S1132C909B816115710521F0FB019383828304C03C
S1132CA09093810180938001FE01329644C0FE011D
S1132CB0E20FF31F819391932250310939832883C2
S1132CC03AC020917E0130917F01232B41F4209161
S1132CD002013091030130937F0120937E01209102
S1132CE00001309101012115310541F42DB73EB7A2
S1132CF04091040150910501241B350BE0917E01A4
S1132D00F0917F01E217F307A0F42E1B3F0B281765
S1132D10390778F0AC014E5F5F4F2417350748F050
S1132D204E0F5F1F50937F0140937E0181939193D7
S1132D3002C0E0E0F0E0CF01DF91CF910895CF939E
S1132D40DF93009709F487C0FC0132971382128243
S1132D50C0918001D0918101209781F4208131813B
S1132D60280F391F80917E0190917F01821793076C
S1132D7079F5F0937F01E0937E016DC0DE0120E0E0
S1132D8030E0AE17BF0750F412964D915C91139743
S1132D909D014115510509F1DA01F3CFB383A283F3
S1132DA040815181840F951F8A179B0771F48D917F
S1132DB09C911197840F951F02969183808312969C
S1132DC08D919C911397938382832115310529F466
S1132DD0F0938101E09380013EC0D9011396FC93E6
S1132DE0EE9312974D915D91A40FB51FEA17FB075F
S1132DF079F480819181840F951F0296D9011196EF
S1132E009C938E938281938113969C938E931297B5
S1132E10E0E0F0E08A819B81009719F0FE01EC016B
S1132E20F9CFCE01029628813981820F931F209118
S1132E307E0130917F012817390769F4309729F40E
S1132E40109281011092800102C013821282D093E9
S1132E507F01C0937E01DF91CF910895BB274A3053
S1132E6031F4992322F4BDE2909581959F4F0C94FF
S1132E706B17BB272A3051F4992342F4BDE2909595
S1132E808095709561957F4F8F4F9F4F0C94491794
S1132E90BB27FA01A62F6217710581059105330B33
S1132EA030FB66F0AA27660F771F881F991FAA1F99
S1132EB0A21710F0A21B63953850A9F7A05DAA339E
S1132EC008F0A95DA19336F7B111B1931082CA013C
S1132ED00C948417BB27FB015527AA27880F991F39
S1132EE0AA1FA41710F0A41B83955051B9F7A05D35
S1132EF0AA3308F0A95DA193009779F7B111B193B2
S1132F001192CB010C948417DC01FC01672F7191A1
S1132F107723E1F7329704C07C916D9370836291BB
S10F2F20AE17BF07C8F30895F894FFCF64
S1132F2C00008201200000E10000000008CDCC4C20
S1052F3C3F0050
S9030000FC
